:1070000055C00000C6C00000C4C00000C2C00000DF
:10701000C0C00000BEC00000BCC00000BAC000007C
:10702000B8C00000B6C0000082C50000B2C00000B9
:10703000B0C00000AEC00000ACC00000AAC000009C
:10704000A8C00000A6C00000A4C00000A2C00000AC
:10705000A7C300009EC000009CC000009AC00000B2
:1070600098C0000096C0000094C0000092C00000CC
:1070700090C000008EC000008CC000008AC00000DC
:1070800088C0000086C0000084C0000082C00000EC
:1070900080C000007EC000007CC000007AC00000FC
:1070A00078C0000076C0000074C0000011241FBE2C
:1070B000CFEFDAE0DEBFCDBF8091A5019091A601B0
:1070C0001092A6011092A50104B601FE1CC0843ADC
:1070D0009747C9F084B78D7F84BF84EA97E7909380
:1070E000A6018093A5018EEE92E0EFE9FFE03197D3
:1070F000F1F700C000000197C1F71092A6011092AD
:10710000A50181E011C004B600FE05C084B78E7FE2
:1071100084BF81E009C004B603FE05C084B7877F41
:1071200084BF81E001C080E0E0E0F0E0259134918F
:1071300091E02F3F3F4F09F490E09093A7018823FF
:1071400099F0992389F084B7877F84BF0FB6F894AC
:10715000A895809160008861809360001092600023
:107160000FBEE0E0F0E0099511E0A0E0B1E0EEEF45
:10717000FEE702C005900D92A639B107D9F721E0CC
:10718000A6E9B1E001C01D92A53AB207E1F782D0AD
:10719000B4C636CF07B600FCFDCFF999FECF23E089
:1071A000FB0120935700E89507B600FCFDCF81E175
:1071B00080935700E895089507B600FCFDCFF99934
:1071C000FECF25E0FB0120935700E89507B600FCB1
:1071D000FDCF81E180935700E895089507B600FC44
:1071E000FDCFF999FECF21E0FB010A012093570062
:1071F000E8951124089521E2FC0120935700849121
:10720000089529E0FC012093570084910895E1E05E
:10721000F0E089E0809357008491089507B600FC60
:10722000FDCFF999FECF809599E0E1E0F0E0082EDE
:1072300090935700E895089584E08093E900809149
:10724000E80085FD0DC08091E8008B778093E80011
:107250008091E80082FDF3CF8EB38111F9CF02C097
:107260008091F100089593E09093E9009091E800F7
:1072700095FF03C08093F10008959091E8009E77F8
:107280009093E8009091E80090FDF4CF9EB39111A7
:10729000F9CF0895CF93DF9300D000D0CDB7DEB7FC
:1072A00084B7877F84BF0FB6F894A895809160005B
:1072B000886180936000109260000FBE90E080E8CB
:1072C0000FB6F89480936100909361000FBE11E0B7
:1072D00015BF82E085BF0ED4209A289A559A5D9AF0
:1072E00010936F0083E08093810028985D9A88E274
:1072F00080939A017894A3E0BA2EB5E0AB2E212CAE
:10730000312C88E091E027E0280F2983809100014B
:10731000882309F42FC284E08093E9008091E8007B
:1073200082FF26C288E280939A0186DF982F8534F7
:1073300019F41092000107C088E8890F823010F01C
:10734000943521F479DF8DE08EDFEAC19035D9F3F1
:107350009C34C9F3943721F484E485DF80E0F4CFD2
:10736000913611F489E5F0CF913491F465DF082F5F
:1073700063DF90E0880F991F202F30E0322F222703
:10738000330F822B932B092E000CAA0BBB0B9CC135
:10739000903711F483E5D8CF933561F478E0E72E88
:1073A00071E0F72EF70181917F015DDF29812E11B8
:1073B000F9CFB6C1963521F481E355DF80E3C4CF20
:1073C000933731F487E84FDF85E94DDF8EE1BCCF9D
:1073D0009536A9F4E0E0F0E0B0925700E89507B6E2
:1073E00000FCFDCFA0925700E89507B600FCFDCF4A
:1073F000E058FF4FE11580E7F80771F7A4CF9C36FE
:1074000051F41ADF809599E0E1E0F0E0082E9093C6
:107410005700E89598CF923721F489E0E1E0F0E059
:1074200010C0963419F489E0F1010BC09E3421F4A8
:1074300089E0E3E0F0E005C0913539F489E0E2E06D
:10744000F0E08093570084917FCF923631F489E544
:107450000ADF80E008DF80E877CF923419F09736B2
:1074600009F0CDC09A83E8DEE82EF12CFE2CEE2444
:10747000E3DEE82AE1DE082F8BEB800F9A81823071
:1074800010F08FE361CF973609F044C081E180931B
:107490005700E8953701912C6114710409F440C13B
:1074A000C0909601D0909701E0909801F0909901DA
:1074B0000634B9F4E92DF0E0EC29FD298491D3DEFE
:1074C000992069F0F2E0CF0ED11CE11CF11CC092B2
:1074D0009601D0929701E0929801F092990191263D
:1074E00015C0D701C601B695A79597958795EFD496
:1074F000BADE22E0C20ED11CE11CF11CC092960142
:10750000D0929701E0929801F092990181E0681A77
:107510007108C2CF409096015090970160909801F9
:1075200070909901063439F4F201B0925700E89551
:1075300007B600FCFDCFFC82EB82812C912CEB8105
:10754000FC81EF2B09F450C0063431F5992001F18C
:10755000C0909601D0909701E0909801F090990129
:107560006BDE282D30E0382BF6010901109357000F
:10757000E8951124F2E0CF0ED11CE11CF11CC09261
:107580009601D0929701E0929801F092990102C081
:1075900053DE882E912622C04FDE682F80919601FF
:1075A00090919701A0919801B0919901B695A795F6
:1075B0009795879594D48091960190919701A09189
:1075C0009801B09199010296A11DB11D8093960179
:1075D00090939701A0939801B09399018B819C811E
:1075E00001979C838B83ABCF063409F0ACCEF201BC
:1075F000A0925700E89507B600FCFDCFA4CE9334C7
:1076000069F4E0909601F090970116DE90E0F701A2
:107610000C0110935700E895112495CE9336F9F498
:10762000C0909601D0909701E0909801F090990158
:1076300003DEF601E16090E00C0110935700E8953D
:107640001124F2E0CF0ED11CE11CF11CC092960176
:10765000D0929701E0929801F092990174CE9D36F4
:1076600059F4E0919601F0919701A0925700E895A6
:1076700007B600FCFDCF67CE923551F4E09196013C
:10768000F0919701E590F4908F2DEDDD8E2D5CCE7D
:10769000943419F5D1DD682F80919601909197016E
:1076A000A0919801B0919901B695A7959795879566
:1076B00016D48091960190919701A0919801B09174
:1076C00099010296A11DB11D809396019093970197
:1076D000A0939801B093990136CE9436F1F4C090FE
:1076E0009601D0909701E0909801F0909901D70110
:1076F000C601B695A79597958795E9D3B4DD22E0A5
:10770000C20ED11CE11CF11CC0929601D0929701CF
:10771000E0929801F092990103C09B3109F0B1CE3B
:10772000B092E9009091E8008091E8008E77809314
:10773000E80095FD11C08091E80080FD04C08EB383
:107740008111F9CF15C08091E8008E778093E80011
:1077500003C08EB3882361F08091E80080FFF9CFE9
:1077600084E08093E9008091E8008B778093E800C3
:1077700095D3CCCD8FE99FE00197F1F700C00000D1
:107780008091E00081608093E0009CE088E10FB68A
:10779000F894A895809360000FBE90936000FFCF8F
:1077A0001F920F920FB60F9211248F9381E083B92D
:1077B00080E289B980919A01882321F081508093D9
:1077C0009A0105C08091A7018111109200018F914B
:1077D0000F900FBE0F901F90189542E061EC82E071
:1077E0001DD142E161E883E019D142E160E884E023
:1077F00015C180919D018F77813209F03DC081E0F4
:1078000083B980E289B980919E01813229F0823268
:1078100049F1803289F512C080919D01813A61F56C
:107820008091E800877F8093E80067E070E081E066
:1078300091E055D08091E8008B7711C080919D0137
:107840008132D1F48091E800877F8093E80067E07F
:1078500070E081E091E0A4D08091E8008E77809381
:10786000E800089580919D01813231F48091E80013
:10787000877F8093E800E6C00895292F30E022300A
:10788000310559F02330310569F021303105F9F423
:1078900082E190E024E831E01EC08EE390E026E42F
:1078A00031E019C0882349F0813061F0823079F4E9
:1078B00088E190E020E131E00EC084E090E022E435
:1078C00031E009C086E190E02AE231E004C080E0C6
:1078D00090E020E030E0FA01318320830895209188
:1078E000A3013091A4012617370748F061157105EF
:1078F00039F42091E8002E772093E80001C0B90107
:1079000040E061157105A1F12EB3222309F442C0B4
:10791000253009F441C02091E80023FD3FC02091AB
:10792000E80022FD31C02091E80020FFEACF40911D
:10793000F3002091F20030E0342BFC01CF016115FF
:10794000710559F02830310540F481918093F100A0
:10795000615071092F5F3F4FF1CF41E02830310571
:1079600009F040E02091E8002E772093E800C9CF8D
:107970004111CACF09C08EB3882361F0853061F010
:107980008091E80083FD0AC08091E80082FFF3CF78
:1079900080E0089582E0089583E0089581E00895ED
:1079A0006115710529F42091E8002B772093E800F8
:1079B000FC016115710531F18EB3882359F18530D1
:1079C00059F18091E80083FD23C08091E80082FF97
:1079D000F0CF2091F3008091F20090E0922B892B60
:1079E00031F08091F10081936150710991F780919C
:1079F000E8008B778093E800DCCF8EB3882351F0CA
:107A0000853051F08091E80080FFF7CF80E0089545
:107A100081E0089582E0089583E008958F70809357
:107A2000E900EBEEF0E0808181608083EDEEF0E034
:107A300010826093EC0040838091EE00881F8827BD
:107A4000881F089580919D0187FF0FC08091E800F5
:107A500082FD04C08EB38111F9CF10C08091E8007F
:107A60008B770AC08EB3882349F08091E80080FFAD
:107A7000F9CF8091E8008E778093E80008950F9306
:107A80001F93CF93DF9346D04DD0C8EDD0E08881CF
:107A90008F77888388818068888388818F7D8883B9
:107AA00019BC1EBA10929B0100EE10E0F801808113
:107AB0008B7F808388818160888342E060E080E002
:107AC000ADDFE1EEF0E080818E7F8083E2EEF0E0DA
:107AD000808181608083808188608083F8018081DB
:107AE0008E7F8083888180618883DF91CF911F9111
:107AF0000F910895E8EDF0E080818F7E8083E7EDBF
:107B0000F0E080818160808384E082BF81E08093A7
:107B10009C01B5CFE8EDF0E080818E7F80831092EC
:107B2000E20008951092DA001092E10008951F9289
:107B30000F920FB60F9211242F933F934F935F93A1
:107B40006F937F938F939F93AF93BF93EF93FF9325
:107B50008091DA0080FF1BC08091D80080FF17C0A1
:107B60008091DA008E7F8093DA008091D90080FFC7
:107B70000BC080E189BD82E189BD09B400FEFDCF63
:107B800081E08EBB8AD103C019BC1EBA86D1809118
:107B9000E10080FF17C08091E20080FF13C0809158
:107BA000E2008E7F8093E2008091E200806180930A
:107BB000E2008091D80080628093D80019BC85E0F3
:107BC0008EBB6BD18091E10084FF2EC08091E200DA
:107BD00084FF2AC080E189BD82E189BD09B400FE2D
:107BE000FDCF8091D8008F7D8093D8008091E100F7
:107BF0008F7E8093E1008091E2008F7E8093E2008F
:107C00008091E20081608093E20080919B01882353
:107C100011F084E007C08091E30087FD02C081E09D
:107C200001C083E08EBB39D18091E10083FF21C088
:107C30008091E20083FF1DC08091E100877F8093E7
:107C4000E10082E08EBB10929B018091E1008E7F6B
:107C50008093E1008091E2008E7F8093E20080912A
:107C6000E20080618093E20042E060E080E0D6DEE6
:107C700014D1FF91EF91BF91AF919F918F917F911F
:107C80006F915F914F913F912F910F900FBE0F9089
:107C90001F9018951F93CF93DF9300D0CDB7DEB719
:107CA000EDE9F1E088E08E0F9091F10091938E1351
:107CB000FBCF9FDD8091E80083FFDBC080919D01B9
:107CC00090919E01953009F466C030F4913059F1DD
:107CD00068F0933041F1CDC0983009F49DC09930DF
:107CE00009F4ACC0963009F0C4C076C0803881F089
:107CF000823809F0BEC08091A1018F708093E900A5
:107D00008091EB0085FB882780F91092E90001C083
:107D100080E09091E800977F9093E8008093F100D5
:107D20001092F10084C0282F2D7F09F0A2C082306C
:107D300009F09FC080919F01811127C08091A1010E
:107D40008F7009F496C08093E9002091EB0020FF2A
:107D50001CC0933021F48091EB00806214C090919C
:107D6000EB0090619093EB0021E030E0A90102C0AC
:107D7000440F551F8A95E2F74093EA001092EA00FB
:107D80008091EB0088608093EB001092E900809175
:107D9000E800877F4FC081116CC010919F011F7751
:107DA0008091E3008078812B8093E3008091E8004C
:107DB000877F8093E80046DE8091E80080FFFCCF5B
:107DC0008091E30080688093E300111102C082E09B
:107DD00001C083E08EBB4DC08058823008F049C09E
:107DE000AE014F5F5F4F6091A10180919F01909123
:107DF000A00143DDBC01892B09F43BC09091E80050
:107E0000977F9093E80089819A8169DD8091E800ED
:107E10008B778093E8002DC0803859F58091E80079
:107E2000877F8093E80080919B018093F10080918F
:107E3000E8008E778093E80005DE1BC0811119C031
:107E400090919F019230A8F48091E800877F809301
:107E5000E80090939B01F6DD80919B01811106C0A3
:107E60008091E30087FD02C081E001C084E08EBB09
:107E7000B4DC8091E80083FF0AC08091E800877F2E
:107E80008093E8008091EB0080628093EB000F907C
:107E90000F90DF91CF911F9108950895CF938EB3E6
:107EA000882399F0C091E900CF709091EC00892F60
:107EB000817090FD80E8C82B1092E9008091E80065
:107EC00083FDE8DECF70C093E900CF910895F99962
:107ED000FECF92BD81BDF89A992780B50895262FCF
:107EE000F999FECF1FBA92BD81BD20BD0FB6F8949F
:0E7EF000FA9AF99A0FBE01960895F894FFCF02
:107EFE0001000000000000084C5546414344430079
:107F0E0018034100760069006C0069006700680084
:107F1E007400200042004C00000016034A006F005F
:107F2E0065007200670020005000720069006D004D
:107F3E0000000403090409023E0002010080320918
:107F4E0004000001020201000524001001042402B5
:107F5E00020524060001070582030800FF0904013B
:107F6E0000020A0000000705040210000507058341
:107F7E00021000051201100102000008EB034A2056
:067F8E00000101020001E8
:107FA000F9C80AC91BC927C92CC931C937C90895DD
:087FB000089508950895089555
:107FE000DFCFDFCFDFCFDFCFDFCFDFCFDFCFDFCF21
:087FF000DFCFDFCFDFCFDFCFD1
:087FF8000070000000DFFBDC5B
:040000030000700089
:00000001FF
